:020000040800F2
:10000000580600209D0100080B1400088912000802
:1000100009140008A90200081117000800000000D8
:100020000000000000000000000000000F140008A5
:10003000AB020008000000000D14000811140008B5
:10004000B7010008B7010008B7010008B7010008B0
:10005000B7010008B7010008B7010008B7010008A0
:10006000B7010008B7010008B7010008B701000890
:10007000B7010008B7010008B7010008B701000880
:10008000B7010008B7010008B7010008B701000870
:10009000B7010008B7010008B7010008C302000853
:1000A000B7010008B7010008B7010008B701000850
:1000B000B7010008B7010008B7010008B701000840
:1000C000B7010008B7010008B7010008B701000830
:1000D000B701000805170008B7010008B7010008BC
:1000E000AD020008B7010008B7010008B701000819
:1000F000B7010008B7010008B7010008B701000800
:10010000B7010008B7010008B7010008B7010008EF
:10011000B7010008B7010008B7010008B7010008DF
:10012000B7010008B7010008B7010008B7010008CF
:10013000B7010008B7010008B7010008B7010008BF
:10014000B7010008B7010008B7010008B7010008AF
:10015000B7010008B7010008B7010008B70100089F
:10016000B7010008B7010008B7010008B70100088F
:10017000B7010008B7010008B7010008000000003F
:10018000B7010008B7010008DFF80CD000F07AF8DA
:1001900000480047C51A0008580600200648804756
:1001A00006480047FEE7FEE7FEE7FEE7FEE7FEE75C
:1001B000FEE7FEE7FEE7FEE7991400088901000864
:1001C0002DE9F05F0546002092469B46884606468C
:1001D000814640241BE0284641464746224600F01F
:1001E00041F853465A46C01A914110D31146184659
:1001F000224600F028F82D1A67EB01084F462246E8
:100200000120002100F01FF817EB00094E41201ECD
:10021000A4F10104DFDC484631462A464346BDE8E6
:10022000F09FD2B201E000F8012B491EFBD27047CB
:100230000022F6E710B513460A4604461946FFF7B2
:10024000F0FF204610BD202A04DB203A00FA02F11C
:10025000002070479140C2F1200320FA03F31943B4
:1002600090407047202A04DB203A21FA02F0002156
:10027000704721FA02F3D040C2F1200291400843B6
:1002800019467047064C074D06E0E06840F0010350
:1002900094E8070098471034AC42F6D3FFF778FF94
:1002A000E41E0008041F0008FEE7704710B54FF475
:1002B000006000F035FABDE810404FF4005000F047
:1002C0002FBA4FF4007000F02BBA72B6FEE70000B0
:1002D000002229B101291AD002291BD04FF4407203
:1002E0000E490B6823F440730B600B6813430B60DB
:1002F0000A6822F0F8020A600A68022303EBC000D1
:1003000002430A60086840F48030086070474FF488
:100310008072E5E74FF40072E2E70000103C024013
:100320001348016889050FD5016821F40071016047
:10033000016841F400610160016821F4006101601D
:10034000016841F400710160016849050FD5016839
:1003500021F480610160016841F48051016001680D
:1003600021F480510160016841F4806101607047AF
:10037000003C024008490A6822F440720A600A6898
:1003800042F004020A600A684FF4803343EA002016
:1003900002430A6070470000103C0240064A13689E
:1003A00023F44073136013681360136843F0010370
:1003B0001360017070470000103C0240094910B5FD
:1003C0000C6824F440740C600C6844F440740C60B5
:1003D0000C6844F001040C600260BFF36F8F43604F
:1003E00010BD0000103C0240074A136823F440731C
:1003F0001360136843F480731360136843F00103C0
:100400001360018070470000103C0240074A1368E7
:1004100023F440731360136843F40073136013688C
:1004200043F001031360016070470000103C02407C
:1004300017490868C206174805D5C26942F010027C
:10044000C26110220A600A68920605D5C26942F0AC
:100450000802C26120220A600A68520605D5C269F4
:1004600042F00402C26140220A600A68120605D501
:10047000C26942F00202C26180220A600A689207E1
:1004800005D5C26942F02002C261022008607047AF
:100490000C3C02403402002070B511490446002093
:1004A000C86100F037FA06460E4D09E0601C07D01F
:1004B00024B100F02FFA801BA04201D9032070BDA7
:1004C0002868C003F2D42868C00701D00120286042
:1004D000286810F0F200F2D0FFF7AAFF012070BDEB
:1004E000340200200C3C024090F83510022903D061
:1004F0008021416501207047052180F83510006892
:10050000016821F0010101600020704770B50446C8
:1005100000F000FA0546601C02D00448007804444C
:1005200000F0F8F9401BA042FAD370BD140000207F
:100530002DE9F047044622480F46017E01290AD0E2
:100540000121804601764CF250394846FFF7A4FF5E
:10055000020003D02FE00220BDE8F0874FF0FF300B
:1005600038602068174D012801D0A6681CE0207C67
:100570006168FFF7FFFE4846FFF78EFF02462868D6
:1005800020F00400286014E0217C3046FFF7A0FE34
:100590004846FFF781FF0200286820F0FA00286033
:1005A00001D03E6005E0761CD4E902100844B04258
:1005B000EAD8FFF7B5FE002188F818101046CBE7FF
:1005C00034020020103C02400348016841F0004121
:1005D0000160002070470000103C02402DE9F04708
:1005E0001B4E05461446307E1F468946012808D01A
:1005F000012030764CF250384046FFF74DFF18B1DD
:1006000014E00220BDE8F0879DB1012D16D0022D27
:1006100019D022463B464846FFF7D0FE4046FFF73A
:100620003BFF0C490A6822F001020A600021317682
:10063000E8E7E1B24846FFF7B1FEEFE7A1B248466E
:10064000FFF7D2FEEAE721464846FFF7DFFEE5E77F
:1006500034020020103C0240074900200A68002AAA
:1006600009DA054A054B0C3A1360054B136009681B
:10067000002900DA01207047103C02402301674541
:10068000AB89EFCD70B54FF40055214CA84211D184
:10069000204E2946304600F02BF9002820D11420A6
:1006A000FFF734FF2946304600F022F9002817D121
:1006B000032014E04FF40065A84212D1164E2946DB
:1006C000304600F015F900280AD11420FFF71EFF6C
:1006D0002946304600F00CF9002801D10220207094
:1006E00070BD4FF40075A842FAD10C4E2946304631
:1006F00000F0FEF80028F3D11420FFF707FF294689
:10070000304600F0F5F80028EAD10120E7E70000C4
:1007100004000020000802400014024000200240B3
:10072000044910B50A68024202D00860FFF7AAFF28
:1007300010BD0000143C01402DE9F84F00224FF09D
:10074000010803254FF00F0E0B6808FA02F423404E
:10075000A3426ED14E68012E05D0022E03D0112E79
:1007600001D0122E12D186684FEA420C05FA0CF71E
:10077000BE43CF6807FA0CF7374387604668A64345
:100780000C79C4F30014944034434460C6685700A5
:1007900005FA07FC8C6826EA0C06BC403443C460AA
:1007A0004C68022C01D0122C13D1D40800EB840425
:1007B000A346D4F8209054074FEAD46A0EFA0AF6FA
:1007C00029EA06090E6906FA0AF646EA0906CBF88E
:1007D000206006680C7926EA0C0604F00304BC408D
:1007E000344304604C68E40065D5364C266846F412
:1007F00080462660246822F0030604F480440094B6
:10080000314C3444A446D4F808489607370F0EFA02
:1008100007F6B4432D4EB04201D1002624E02C4E01
:10082000B04201D101261FE02A4EB04202D1022679
:100830001AE040E0284EB04201D1032614E0274ED2
:10084000B04201D104260FE0254EB04201D1052669
:100850000AE0244EB04201D1062605E0224EB04205
:1008600001D1072600E00826BE402643CCF80868E0
:100870001E4E34684F689C43FF0300D51C43346010
:100880001A4C241D26684F689E43BF0300D51E43A3
:100890002660164E083634684F689C43FF0200D528
:1008A0001C433460114E0C3634684F689C43BF02C1
:1008B00000D51C433460521C102AFFF445AFBDE83C
:1008C000F88F000044380240003001400000024030
:1008D0000004024000080240000C024000100240E8
:1008E0000014024000180240001C0240003C01407D
:1008F0000069084000D001207047426931EA0202D5
:1009000000D10904816170470AB18161704709040F
:10091000FBE70000014880687047000014000020D9
:1009200002488168027811448160704714000020F9
:100930000B4810B5016841F400710160016841F491
:1009400080610160016841F480710160032000F062
:100950006FF8002000F006F800F024F8002010BD29
:10096000003C024070B50D4D04464FF47A71287872
:10097000B1FBF0F00A490968B1FBF0F000F004FBAC
:1009800048B9102C07D200222146501E00F030F842
:1009900000206C6070BD012070BD000014000020BC
:1009A000200000200A4808B5016841F48041016038
:1009B000006800F4804000900548001F016841F085
:1009C00080510160006800F08050009008BD000078
:1009D00044380240002809DB00F01F020121914049
:1009E0004009800000F1E020C0F8001170470000CD
:1009F000F0B40E4B1B680C46C3F30223C3F107058A
:100A0000042D00D90425191D072901D2002300E077
:100A1000DB1E012606FA05F1491E214099409E4041
:100A2000761E16403143F0BC00F084BE0CED00E0B1
:100A3000064900F0070208684FF6FF03184040EA35
:100A40000220034A10430860704700000CED00E0EC
:100A50000000FA052DE9F0470E46050065D0DFF8E5
:100A60001481D8F80000F7B200F00F00B04207D2AE
:100A700088F80070D8F8000000F00F00B04254D1A0
:100A800028683D4C810712D5400703D5206840F403
:100A9000E05020602878000703D5206840F46040CB
:100AA00020602068A96820F0F000084320602878C2
:100AB000C0072DD0304968680839012812D00228B3
:100AC00013D0032811D00968890700292DDA21687D
:100AD00021F0030101432160FFF71CFF814641F231
:100AE000883A0EE009688903EFE709688901ECE7B5
:100AF000FFF710FFA0EB0901514502D90320BDE823
:100B0000F0872068696800F00C00B0EB810FEFD12E
:100B1000D8F80010404601F00F01B14207D9077024
:100B2000006800F00F00B04201D00120E7E728780C
:100B3000400705D52068E96820F4E05008432060AC
:100B40002878000706D52068296920F4604040EA2B
:100B5000C100206000F038F82168084AC1F3031191
:100B6000515CC8400649086006480068FFF7FAFE75
:100B70000020C4E7003C024008380240CA1E0008BA
:100B8000200000201800002004480549006809687A
:100B9000044AC1F38221515CC84070472000002004
:100BA00008380240DA1E0008044805490068096850
:100BB000044AC1F34231515CC84070472000002014
:100BC00008380240DA1E0008154810B5006810F019
:100BD0000C02144813D01449042A0FD0082A0ED14D
:100BE0000F4C241F2268236802F03F025B0207D5E6
:100BF0002068C0F38810A0FB010106E0084610BD84
:100C00002168C1F38811A1FB00010023FFF7D8FA86
:100C10002168C1F30141491C4900B0FBF1F010BD4E
:100C2000083802400024F40040787D012DE9F84F97
:100C300004006ED02078DFF83C93C007A9F10405CA
:100C40004AD009F104000168C1F38101012908D0EB
:100C50000068C0F3810002280AD1D9F800004002E0
:100C600006D52868800337D560680028E1D033E0D6
:100C70006068B0F5803F10D0B0F5A02F286810D084
:100C800020F480302860286820F480202860606884
:100C9000A8B1FFF73FFE06460DE0286840F480301B
:100CA000F4E740F480202860F7E700BFFFF732FE4A
:100CB000801B642873D828688003F7D50CE0FFF701
:100CC00029FE064605E000BFFFF724FE801B6428CE
:100CD000F0D828688003F7D42078DFF89C8280075A
:100CE0004FF0000A3ED5A348001D016811F00C0F1B
:100CF00008D00068C0F3810002280BD1D9F80000A9
:100D0000400207D42868800716D5E068012800D182
:100D100012E02BE1E068B8B10120C8F80000FFF74D
:100D2000F9FD064605E000BFFFF7F4FD801B022831
:100D3000C0D828688007F7D52868216920F0F80016
:100D400040EAC10028600DE0C8F800A0FFF7E2FD0E
:100D5000064604E0FFF7DEFD801B02281FD8286846
:100D60008007F7D42078000722D5824E8348616936
:100D7000703671B101210160FFF7CCFD074604E038
:100D8000FFF7C8FDC01B022809D830688007F7D5D7
:100D90000EE0C0F800A0FFF7BDFD074605E082E0C9
:100DA000FFF7B8FDC01B02287DD830688007F7D454
:100DB0002078400768D5DFF8BCB100270BF13C0B69
:100DC000DBF80000C0000BD4DBF8001041F08051CC
:100DD000CBF80010DBF80000012700F080500090F5
:100DE000674E3068C00510D4306840F480703060C1
:100DF000FFF790FD009005E0FFF78CFD0099401A89
:100E0000022850D83068C005F6D55A4EA0686C3616
:100E100001280FD00528306810D020F00100306084
:100E2000306820F004003060A068B8B1FFF772FDB0
:100E300000900FE0306840F00100F4E740F004005B
:100E40003060F7E7FFF766FD0099411A41F28830FC
:100E5000814266D830688007F4D50EE0FFF75AFD6E
:100E6000009007E0FFF756FD0099411A41F28830E3
:100E7000814256D830688007F4D42FB1DBF80010D7
:100E800021F08051CBF80010A069C8B33949091D81
:100E90000968C1F3810102294AD00228504607D0CF
:100EA000C8F8600000E03CE0FFF734FD04463BE09A
:100EB0004746C8F86000FFF72DFD064605E000BF75
:100EC000FFF728FD801B02282BD828688001F7D463
:100ED000D4E907010843A16A2A4A490802EB014103
:100EE000626A41EA8211084394F82C1040EA0161D9
:100EF000C9F8001001203866FFF70CFD044606E033
:100F000036E000BFFFF706FD001B022809D828685D
:100F10008001F7D52CE000BFFFF7FCFC001B022886
:100F200002D90320BDE8F88F28688001F4D41FE0BF
:100F30000128F7D0D9F80000E26900F4800191425D
:100F400014D1226A00F03F0191420FD147F6C071DF
:100F5000626A0140914209D1A26A00F44031914293
:100F600004D1E16A00F07060884201D00120D9E725
:100F70000020D7E70438024000004742800E474275
:100F8000007000400000FFFF10B5401EB0F1807FF0
:100F900001D3012010BD4FF0E02460610F216017E4
:100FA00000F0C8FB0020A06107202061002010BDD8
:100FB0007047000070B5026804461068D168536934
:100FC00010F00F0F52D003F0010501F490762E437C
:100FD0005FD0C20705D0CA0503D5E26B42F001021B
:100FE000E263420705D5DA0703D0E26B42F0020262
:100FF000E263820705D5DA0703D0E26B42F0040210
:10100000E263020707D501F020022A4303D0E26B16
:1010100042F00802E263E26B002A33D0800604D576
:10102000880602D5204600F05BFA20684069E16B33
:10103000C0F38010090700D428B3204600F042FA1C
:101040002068416949061AD5416921F04001416192
:10105000606BA0B11B490165606BFFF745FA002882
:1010600010D0606B016DBDE870400847830610D555
:101070008B060ED52046BDE8704000F031BA204600
:10108000FFF796FF70BD2046FFF792FF0020E06358
:1010900070BD030606D50B0604D52046BDE870409A
:1010A00000F0FEBA4006F3D54806F1D5D1682046D7
:1010B00021F04001D160202184F8391000F0E2F8DD
:1010C00070BD0000B514000870B5040004D094F899
:1010D0003900002510B106E0012070BD84F83850B9
:1010E000204600F023F8242084F839002068C168E5
:1010F00021F40051C160204600F03EFA20680169E9
:1011000021F4904101612068416921F02A01416187
:101110002068C16841F40051C160E563202084F873
:10112000390084F83A00002070BD000070B586B028
:10113000044614216846FFF77BF8284E22680021F8
:101140002748022303240725B24225D1244A14321A
:10115000166846F010061660126802F0100205923A
:10116000026842F001020260006802AA00F0010079
:10117000059082E832006002CDE900036946194813
:10118000FFF7DAFA002201212520FFF731FC2520A4
:10119000FFF720FC06B070BD134EB242FAD1104AE0
:1011A0001032166846F480261660126802F4802217
:1011B0000592026842F002020260006802AA00F092
:1011C0000200059082E832004FF44060CDE9000350
:1011D00069460648FFF7B0FADCE70000001001405E
:1011E0003038024000000240004800400004024045
:1011F00090F83A30202B22D1F9B1F2B190F8383082
:10120000012B1CD081628285C2850021C16322220C
:1012100080F83A2080F838100168CA6842F4807279
:10122000CA6001684A6942F001024A610068C16807
:1012300041F02001C160002070470120704702206A
:101240007047000010B500680A49884211D10A4968
:101250004868B0F55C4F05D20A46084B12781A541C
:10126000401C4860012204490548FFF7C1FF0028DF
:10127000F8D110BD0010014008000020001000202F
:10128000B40100207047000001A000F043FAFEE71F
:10129000486172644661756C745F48616E646C6528
:1012A000720D0A002DE9F04186B014216846FEF760
:1012B000BFFF34480026016841F004010160016865
:1012C00001F004010591016841F480710160016839
:1012D00001F480710591016841F02001016001680D
:1012E00001F020010591016841F0020101600168EF
:1012F00001F002010591016841F0010101600068FF
:10130000DFF8848000F001004FF4C06705900122EF
:1013100039464046FFF7F8FA1C4D4FF40050CDE92E
:1013200000050124694602941948FFF705FA600296
:10133000CDE90005694602941648FFF7FDF90097CC
:10134000CDE90146694640460396FFF7F5F9E0020C
:10135000CDE90005694602944046FFF7EDF9002209
:1013600001211720FFF744FB1720FFF733FB002272
:1013700001212820FFF73CFB2820FFF72BFB06B0BC
:10138000BDE8F08130380240001402400000211016
:1013900000080240002002400C4810B50A490160D4
:1013A0004FF4E1314160002181600C22C160C0E94D
:1013B00004128161C161FFF787FE002803D0BDE8F8
:1013C0001040FEF782BF10BD00100140B4010020A4
:1013D0000C4810B50A4901604FF4E1314160002129
:1013E00081600C22C160C0E904128161C161FFF714
:1013F0006BFE002803D0BDE81040FEF766BF10BDAD
:1014000000480040F4010020FEE7FEE77047704707
:10141000FFF786BA10B592B030216846FEF708FF94
:1014200014210CA8FEF704FF19480024016841F0BC
:1014300080510160006800F08050119015480168EB
:1014400041F4804101600068069400F480401190EE
:101450000220009001200390102004906846FFF7BE
:10146000E5FB08B172B6FEE70F20CDE90C044FF49E
:10147000A050CDE90E404FF48050109000210CA8F0
:10148000FFF7E8FA002801D072B6FEE712B010BDEF
:1014900040380240007000400548016841F4700186
:1014A000016003494FF00060803908607047000018
:1014B00088ED00E010B5806B0021C185C184FFF785
:1014C00077FD10BD0168CA6822F49072CA60016895
:1014D0004A6922F001024A61202180F83A107047DF
:1014E00010B590F83A10222901D0022010BD816871
:1014F000B1F5805F11D00169002901681FD04968EA
:1015000001F07F03816A4A1C82620B70C18D491E03
:101510000904090CC18518D02BE00269816A002AF0
:101520000268526805D0D2B20A80816A491C816281
:10153000ECE7C2F308020A80816A891CF7E74A686F
:10154000816A4B1C83620A70E0E70168CA6822F076
:101550002002CA600168CA6822F48072CA60016809
:101560004A6922F001024A61202180F83A10FFF70F
:1015700069FE002010BD00002DE9F041044600681E
:101580000169E26821F44051114301612169A068B9
:10159000E26908436169114308432168CA6849F256
:1015A0000C639A430243CA6020684169A26921F42E
:1015B000407111434161E069192764253226B0F575
:1015C000004F354A354920684FF0000806D0884260
:1015D00001D0904236D1FFF7E7FA35E0884201D0DA
:1015E000904202D1FFF7E0FA01E0FFF7CDFA61681F
:1015F0004A18A0FB070148EB0803FEF7E1FD01468E
:10160000B0FBF5F00201B1FBF5F06FF018035843A1
:1016100001EB800006EBC000B0FBF5F000F0F80035
:1016200002EB4002B1FBF5F0584301EB800006EB02
:10163000C000B0FBF5F000F007002168104488609E
:10164000BDE8F081FFF7A0FA61688B0F8A00A0FB6C
:101650000701FEF7B5FD0146B0FBF5F06FF018028B
:10166000504301EB800006EB0010B0FBF5F000F0FA
:10167000F002B1FBF5F002EB0012B1FBF5F06FF0F8
:101680001803584301EB800006EB0010B0FBF5F0A7
:1016900000F00F00D1E700000014014000100140ED
:1016A00090F83910212901D0022070478168B1F5E6
:1016B000805F016A0BD04A1C02620268097851609F
:1016C000C18C491E0904090CC1840ED017E0098899
:1016D0000268C1F30801516001690029016A02D062
:1016E000491C0162ECE7891CFBE70168CA6822F02B
:1016F0008002CA600068C16841F04001C1600020FA
:10170000704700000148FFF755BC0000B4010020FD
:10171000FEE700000FB4054B10B503A9044A029878
:1017200000F028F810BC5DF814FB0000351A000822
:10173000100000200907090E002804DB00F1E0205A
:1017400080F80014704700F00F0000F1E02080F8EE
:10175000141D704702E008C8121F08C1002AFAD100
:1017600070477047002001E001C1121F002AFBD121
:10177000704700002DE9FF4F8DB09B460F46044691
:10178000002606E025280BD05A460F999047641C86
:10179000761C20780028F5D111B03046BDE8F08FD6
:1017A0000025A8460122984900E0054314F8013FAE
:1017B000203B02FA03F00842F7D120782E2817D1F7
:1017C00014F8010F45F004052A280ED06FF02F02FF
:1017D0002078A0F1300109290AD808EB880102EB32
:1017E000410100EB0108641CF2E757F8048B641C0C
:1017F00020786C280DD004DC4C2812D06A2811D136
:1018000004E074280DD07A280CD10AE045F40015C4
:1018100007E0617845F48015814202D1641C05F52A
:101820008015641C2278692A45D008DC002AB3D0D0
:10183000582A69D0632A10D0642A08D13BE0702A64
:1018400067D0732A13D0752A5CD0782A5CD01046F2
:101850005A460F999047761CD3E017F8040B8DF881
:10186000000000208DF80100E946012003E057F850
:10187000049B4FF0FF3069074FF0000501D40AE0E8
:101880006D1C45450DDA8542FADB19F80510002973
:10189000F6D106E06D1C8542FCDB19F80510002925
:1018A000F8D12E4404E019F8010B5A460F999047DD
:1018B0006D1EF8D2A5E00A200021CDE90801C5F38C
:1018C000025002280DD001CFC117031E71F1000391
:1018D0000DDA4FF0000CD0EB0C006CEB01012D2366
:1018E00008E0FF1D27F00707F7E80201EDE72B05E9
:1018F00004D52B238DF8283001233BE0EB0739D0AA
:101900002023F7E70A2000E010200021CDE908019C
:1019100007E01020002145F00405CDE908014FF053
:101920000808C5F3025002280FD001CF00214FF064
:10193000000A2B071FD5702A0DD0DDE908C38CF0F3
:10194000100C5CEA030C0CD015E0FF1D27F0070714
:10195000F7E80201EBE740228DF828204FF0010A5A
:101960000BE050EA010306D030238DF828308DF8C3
:10197000292002239A46582A04D024A20DF12009D6
:101980000B9209E026A2F9E7DDE90823FEF718FC2F
:101990000B9B9B5C09F8013D50EA0102F4D1ADEBD1
:1019A000090020300890680701D44FF00108089919
:1019B000884502DDA8EB010000E0002080460025FC
:1019C00006E00AA85A46405D0F9990476D1C761CA8
:1019D0005545F6DB04E030205A460F999047761CB7
:1019E000B8F10001A8F10108F5DC05E019F8010BD8
:1019F0005A460F999047761C0899481E089000296E
:101A0000F4DC641CC5E600000928010030313233E3
:101A1000343536373839616263646566000000002A
:101A20003031323334353637383941424344454614
:101A30000000000003490A681206FCD50149091D8F
:101A4000086070470048004070B5044600680D49C2
:101A50000840B0F1005F14D161680B4D0BA0296004
:101A6000FFF758FE21460EA0FFF754FE11A0216893
:101A7000FFF750FE206800F025FA2868BDE87040A6
:101A8000004770BD0000FE2F000000206A756D70D9
:101A900032617070203D20307825700D0A00000002
:101AA0006170707861646472203D20307825780D13
:101AB0000A0000006D7370203D20307825780D0AF3
:101AC000000000004FF00008C146FEF731FFFFF7AD
:101AD000A1FCFFF7E7FBFFF75FFCFFF779FC0122B2
:101AE0004B494C48FFF784FB4BA0FFF713FEDFF890
:101AF0003CB14F4F4F4CC246DBF8000078B18045F7
:101B00000CD181464FF000084BA0CBF800A0FFF7A6
:101B100001FE49464DA0FFF7FDFD00E08046761C22
:101B2000F6B26420FEF7F2FC032E05D14FF480617B
:101B30004B48FEF7E2FE002621780029DCD049A0C0
:101B4000FFF7E8FD2078032811D00128D4D1484DB3
:101B500069680820B0EB116F56D146A0FFF7DAFD97
:101B60000A20FEF7D3FC2846FFF76EFF49E0B9F1E3
:101B7000000F44D064212E48FEF75AFB14222C4952
:101B80003B4800F03BF942A0FFF7C4FD5FF00005C1
:101B900048A057F82510FFF7BDFD6D1C0A2DF7DB97
:101BA00046A0FFF7B7FD4A4841680820B0EB116F27
:101BB00023D148A0FFF7AEFD2D4D4A46494928469E
:101BC00000F026F948A0FFF7A5FD64211848FEF7AC
:101BD0002FFB28221649284600F010F9294646A076
:101BE000FFF798FD5FF0000532A057F82510FFF7CA
:101BF00091FD6D1C0A2DF7DB03E047A005E04BA02B
:101C000003E084F800A077E74EA0FFF783FDF8E734
:101C100008000020B4010020626F6F746C6F616473
:101C200065720973746172740D0A00000C00002063
:101C30002400002004000020D3C3BBA7B3CCD0F203
:101C4000BDD3CAD5CDEAB3C9210D0A00B4FAC2EB9F
:101C5000B3A4B6C83A256442797465730D0A0000CE
:101C6000001402406B6579203D2025640D0A0000B8
:101C700000000108BFAACABCD6B4D0D0464C41531C
:101C800048D3C3BBA7B4FAC2EB21210D0A0D0A0049
:101C9000B6C1C8A1203078303830313030303020F3
:101CA000D0B4C8EB666C617368C7B0C4DAB4E6A39D
:101CB000BA0D0A00307825780D0A0000BFAACABC08
:101CC000B8FCD0C2B9CCBCFE2E2E2E0D0A000000EE
:101CD00000100020B8FCD0C2BFAACABC2E2E2E0D08
:101CE0000A00000000100020B9CCBCFEB8FCD0C235
:101CF000CDEAB3C9210D0A00B6C1C8A1D0B4C8EB62
:101D0000BAF3203078257820666C617368C4DAB441
:101D1000E6A3BA0D0A000000B7C7464C415348D3AA
:101D2000A6D3C3B3CCD0F2210D0A0000C3BBD3D0DD
:101D3000BFC9D2D4B8FCD0C2B5C4B9CCBCFE210D49
:101D40000A000000C3BBD3D0BFC9D2D4D4CBD0D0FB
:101D5000B5C4B9CCBCFE210D0A0000001C49884264
:101D600001D2002070471B49884201D201207047F0
:101D70001949884201D2022070471849884201D28D
:101D8000032070471649884201D204207047154944
:101D9000884201D2052070471349884201D20620AB
:101DA00070471249884201D2072070471049884283
:101DB00001D2082070470F49884201D2092070479C
:101DC0000D49884201D20A2070470B20704700005D
:101DD000004000080080000800C000080000010862
:101DE00000000208000004080000060800000808BF
:101DF00000000A0800000C0800000E0810B50023BF
:101E000003E010C841F823405B1C9342F9D310BD96
:101E10002DE9F04F87B04FF0000917460E460446F3
:101E2000CDF81490B0F1006F47D3A00745D1B4F1BD
:101E3000016F42D8FEF710FCDFF88480D8F800105C
:101E400021F48061C8F80010254604EB87074FF0A5
:101E5000010A4FF0020B15E02868401C0DD02846FF
:101E6000CDF80090FFF77AFF02AA05A982E8010CDD
:101E70006846FEF75DFB38B900E02D1D4CF250308E
:101E8000FEF70AFBBD42E7D34CF25030FEF704FBED
:101E900048B10AE00023214602203268FEF79EFB8B
:101EA00018B9241D361DBC42F4D3D8F8001041F4F3
:101EB0008061C8F80010FEF787FB07B0BDE8F08F1F
:101EC000003C024080F308887047000000000000DA
:101ED00000000102030406070809000000000102D7
:101EE00003040000041F000800000020240000007C
:101EF00054170008281F000824000020DCEB000015
:101F0000641700080000000000000000000000004E
:101F100000000000000000000100000010000000B0
:081F2000000000000024F400A1
:040000050800018965
:00000001FF
